:020000040800F2
:10000000B00A00200D020008F906000845050008A6
:10001000F5060008B9030008DD0D00080000000027
:10002000000000000000000000000000410900087E
:10003000F50300080000000079080008F10B000833
:1000400027020008270200082702000827020008EC
:1000500027020008270200082702000827020008DC
:1000600027020008270200082702000827020008CC
:1000700027020008270200082702000827020008BC
:1000800027020008270200082702000827020008AC
:10009000270200082702000827020008270200089C
:1000A00027020008A90D00082702000827020008FF
:1000B000270200082702000827020008270200087C
:1000C000270200082702000827020008270200086C
:1000D000270200082702000827020008270200085C
:1000E000270200082702000827020008000000007D
:1000F0000000000000000000000000000000000000
:10010000000000002702000827020008000000008D
:10011000270200082702000800000000000000007D
:10012000270200082702000827020008270200080B
:1001300000000000000000000000000000000000BF
:100140000000000000000000000000006907000837
:10015000000000000000000027020008270200083D
:10016000000000000000000000000000270200085E
:1001700000F002F800F03AF80AA090E8000C82447F
:100180008344AAF10107DA4501D100F02FF8AFF25C
:10019000090EBAE80F0013F0010F18BFFB1A43F065
:1001A00001031847404A0000604A0000103A24BF8B
:1001B00078C878C1FAD8520724BF30C830C144BFCC
:1001C00004680C607047000000230024002500260E
:1001D000103A28BF78C1FBD8520728BF30C148BFAA
:1001E0000B6070471FB51FBD10B510BD00F0A9F81A
:1001F0001146FFF7F7FF01F0F7FD00F0C7F803B471
:10020000FFF7F2FF03BC00F0CFF800000948804779
:1002100009480047FEE7FEE7FEE7FEE7FEE7FEE7E8
:10022000FEE7FEE7FEE7FEE704480549054A064B00
:1002300070470000F50B000871010008B0040020B1
:10024000B00A0020B0060020B006002053EA020CDD
:1002500000F069802DE9F04B4FF00006002B1FBF26
:10026000B3FA83F503FA05F424FA05F65E4012BFEB
:100270001643B2FA82F502FA05F4C5F120051EBF55
:1002800022FA05FC44EA0C04203556EA044C4FEAF5
:10029000144418BF641C4FF000084FF0000990424E
:1002A00071EB030C39D3002919BFB1FA81F701FAB8
:1002B00007F6B0FA80F700FA07F6C7F120071EBF6D
:1002C00020FA07FC46EA0C062037B6FBF4FCA7EB45
:1002D0000507103F07F01F0BCBF120062CFA06F69E
:1002E0000CFA0BFB44BFB3460026202FA4BF5E468A
:1002F0004FF0000B5BEA060C08BF4FF0010B19EB47
:100300000B0948EB0608ABFB027C06FB02CC0BFB9F
:1003100003CCC01B71EB0C01C1E70B460246414602
:100320004846BDE8F08B13B5084318BF4FF0FF30C7
:100330000146AFF30080BDE81C407047704770472E
:100340007047754600F02CF8AE46050069465346E6
:1003500020F00700854618B020B5FFF765FFBDE81F
:1003600020404FF000064FF000074FF000084FF01C
:10037000000BAC46ACE8C009ACE8C009ACE8C00969
:10038000ACE8C00921F007018D46704710B504465E
:10039000AFF300802046BDE81040FFF730BF0000FB
:1003A000004870473801002001491820ABBEFEE725
:1003B0002600020070470000FFE7FEE781B0002042
:1003C0008DF80300FFE79DF8030007280FDCFFE727
:1003D0009DF8032040F29F21C2F2000100208854C2
:1003E000FFE79DF8030001308DF80300EBE701B053
:1003F000704700007047000080B582B00190ADF8F2
:1004000002100198BDF8021001F072FB02B080BD2D
:1004100080B582B00190ADF802100198BDF80210CD
:1004200001F09EFA02B080BD80B582B00190ADF8B7
:1004300002100198BDF8021001F09CFA02B080BDD4
:1004400080B58CB04FF4C0100121009100F0EEFF98
:1004500000990220C0F2180000F0E8FF0099032084
:10046000C0F2180000F0E2FF009940F20230C3F23F
:10047000100001F059FB40F60040C4F20100089062
:100480000221019101F076FA40F60000C4F2010069
:1004900002908021079101F06DFA089808210391DC
:1004A00001F068FA08981021049101F063FA0898A5
:1004B0002021059101F05EFA08984021069101F093
:1004C00059FA0799089801F055FA0AA8099001F01D
:1004D0005BFA009B019ADDF810C0089809994FF06B
:1004E000040E8DF82CE08DF82DE08DF82EC08DF8DF
:1004F0002F300A9201F05CFA0298079A09990A9241
:1005000001F056FA039A089809990A9201F050FAF4
:10051000049A089809990A9201F04AFA059A0898EB
:1005200009990A9201F044FA069A089809990A92E0
:1005300001F03EFA079A089809990A9201F038FAF0
:100540000CB080BDFFE7FEE780B582B040F29810A6
:10055000C2F200000190017840F21000C2F20000E7
:10056000405C00F011F801980178013101700078C9
:10057000202807DBFFE740F29811C2F200010020BB
:100580000870FFE702B080BD80B582B08DF807002B
:100590009DF80700082808DBFFE740F60040C4F29A
:1005A0000100802101F0DCF907E040F60040C4F2D0
:1005B0000100802101F0DEF9FFE79DF80700400708
:1005C000002808D5FFE740F60040C4F201004021B2
:1005D00001F0C6F907E040F60040C4F201004021F6
:1005E00001F0C8F9FFE79DF807008007002808D54B
:1005F000FFE740F60040C4F20100202101F0B0F90D
:1006000007E040F60040C4F20100202101F0B2F9F9
:10061000FFE79DF80700C00740B1FFE740F6004044
:10062000C4F20100102101F09BF907E040F6004000
:10063000C4F20100102101F09DF9FFE702B080BD76
:1006400040F29E11C2F20001087803300870704732
:1006500080B582B0ADF80600BDF8062040F29A10D1
:10066000C2F20000018811440180BDF8063040F25A
:100670009C12C2F20002118819441180008864287B
:1006800025DBFFE740F29A11C2F20001002008804A
:1006900040F29E10C2F20000007878B1FFE740F609
:1006A0000040C4F20100082101F064F940F29E11FB
:1006B000C2F2000108780138087007E040F60040F7
:1006C000C4F20100082101F04BF9FFE7FFE740F217
:1006D0009C10C2F200000088C82809DBFFE740F246
:1006E0009C11C2F2000100200880FFF72DFFFFE7F8
:1006F00002B080BDFFE7FEE77047000088B00790BA
:1007000006910592079800F0070004900498C0F144
:100710000700052803D3FFE70420019004E00498B4
:10072000C0F107000190FFE701980390049804309E
:10073000062803D8FFE70020009003E00498033860
:100740000090FFE70098029006980399012202FAB0
:1007500001F101390840029B984005999A40013AFD
:100760001140084308B0704780B540F20030C2F233
:10077000000003F0EBFD80BD80B582B000208DF855
:1007800007008DF806000120E621432200F0DAF888
:100790008DF807009DF807000138014600910728F1
:1007A00016D80099DFE801F00408140C1414141092
:1007B00002208DF806000BE001208DF8060007E00E
:1007C00008208DF8060003E004208DF80600FFE7FE
:1007D0009DF8060002B080BD80B584B00120E621FE
:1007E000EF220023029300F059F902988DF80F00D0
:1007F000FFE79DF80F00322816D8FFE79DF80F207D
:1008000044F63A31C0F6000101EB420011F8122023
:1008100043780120E62100F041F9FFE79DF80F0041
:1008200001308DF80F00E4E70120E621EF220023DC
:10083000019300F033F901988DF80F00FFE79DF860
:100840000F001D2816D8FFE79DF80F2044F6FE2163
:10085000C0F6000101EB420011F81220437801209C
:10086000E62100F01BF9FFE79DF80F0001308DF83D
:100870000F00E4E704B080BD7047000080B58AB087
:100880004FF4C0100121059100F0D0FD059903201F
:10089000C0F2180000F0CAFD08A8009001F074F83A
:1008A00000990598042202928DF824208DF82520C5
:1008B00010228DF826208DF8270008228DF826209A
:1008C000089040F60040C4F2010001F071F805996B
:1008D0000120C0F21C0000F0A9FD40F20040C4F26B
:1008E0000000049063218F2201F0C4FC04980021D1
:1008F000039101F0FBFC06A8019001F04DFE019A66
:100900000299DDF80CC00498059B4FF0070E8DF896
:1009100018E08DF81D308DF81BC08DF8193001F0EE
:1009200045FD0299039A049801F0B6FC04980599D4
:1009300001F046FE0498059901F0EAFC0AB080BD7A
:100940007047000080B584B08DF80F008DF80E1050
:100950008DF80D20002001908DF80C009DF80F00FF
:1009600001F092F99DF80F0001F004FA019A9DF848
:100970000F009DF80E1001F0BFF99DF80F0001F077
:100980001FF99DF80F009DF80D1001F08BF99DF8EF
:100990000F0001F015F93220029000F0F7F99DF8F0
:1009A0000F0001F0E7F99DF80F009DF80E100122ED
:1009B00001F0A2F99DF80F0001F002F9029800F091
:1009C000E5F99DF80F0000F02BF88DF80C009DF86C
:1009D0000F0001F031F99DF80F0001F0EBF99DF8DF
:1009E0000C0004B080BD000080B582B08DF8060018
:1009F0009DF8060001280AD1FFE740F60000C4F286
:100A000001001021FFF7F8FC8DF8070003E000203B
:100A10008DF80700FFE79DF8070002B080BD0000D9
:100A200080B584B08DF80F0000208DF807009DF888
:100A30000F0001F04FFA08200290FFE70298411ED4
:100A4000029110B3FFE79DF80F0001F007FA9DF83F
:100A5000070040008DF807009DF80F00FFF7C4FF66
:100A600038B1FFE79DF8070040F001008DF807005E
:100A7000FFE73220009000F089F99DF80F0001F0A7
:100A800001FA009800F082F9D8E79DF80F0001F014
:100A900067FA9DF8070004B080BD000080B582B001
:100AA0008DF807008DF806108DF805208DF80430BC
:100AB00001208DF803009DF8070001F05BF99DF817
:100AC00007009DF80610002201F016F99DF80700B6
:100AD00001F076F820B9FFE700208DF80300FFE76A
:100AE000322000F053F99DF807009DF8051001F041
:100AF000D9F89DF8070001F063F820B9FFE700205E
:100B00008DF80300FFE7322000F040F99DF8070060
:100B10009DF8041000F016F89DF8070001F050F859
:100B200020B9FFE700208DF80300FFE7322000F036
:100B30002DF99DF8070001F03DF99DF8030002B082
:100B400080BD000080B582B08DF807008DF80610DA
:100B50009DF8070001F096F907200090FFE7009844
:100B6000002816D4FFE79DF807009DF80610009BAB
:100B700001229A40114001F0DDF9322000F006F91F
:100B80009DF8070001F06EF8FFE70098013800902B
:100B9000E5E702B080BD000080B586B00220C0F25B
:100BA00018000121009100F041FC04A8039000F01E
:100BB000EBFE0098039904228DF814208DF815207F
:100BC000102201928DF816208DF817004020049015
:100BD00040F60000C4F20100029000F0E9FE019A24
:100BE00002980399049200F0E3FE06B080BD000075
:100BF0007047000041F21C01C4F20201086840F095
:100C00008050086047F25002C4F20002107840F0B1
:100C100004001070086820F08050086041F2000164
:100C2000C4F20201086840F001000860FFE741F2E9
:100C30000000C4F2020000684008C00708B9FFE7DE
:100C4000F5E741F20401C4F20201086820F0030054
:100C50000860FFE741F20400C4F202000068800867
:100C6000800708B1FFE7F5E741F20001C4F2020195
:100C700008684FF6FF72CFF6F2621040086041F24A
:100C80000401C4F202010020086041F22C01C4F208
:100C9000020141F61070086041F23001C4F2020115
:100CA0004FF48010086041F20801C4F202014FF4D1
:100CB0001F0008604EF60851CEF200014FF00060B0
:100CC0000860704780B501F06FF9032001F0BCF8AF
:100CD000FFF7B6FB00F032F8FFF7D0FD40F200401E
:100CE000C4F200000421642201F0D6FAFFF754FF99
:100CF000FFF772FD00F074F840F60040C4F2010006
:100D0000022100F02DFE40F60000C4F20100802117
:100D100000F026FE80BD000040F2A440C2F20000B8
:100D20000078704781B08DF803009DF8030040F211
:100D3000A441C2F20001087001B0704780B584B0D0
:100D40000B20C0F218000121039100F06FFB42F666
:100D50000040C4F201000290632143F63F0201F01B
:100D600089FA02980021019101F0C0FA0298039AD1
:100D7000114601F0FDFA019A1920114601F04AF8D6
:100D80000298039901F0C4FA04B080BD81B00090CC
:100D9000FFE7009828B1FFE7FFE7009801380090CF
:100DA000F7E701B07047000080B582B042F600401E
:100DB000C4F20100012101F0C3FA60B1FFE742F67D
:100DC0000040C4F201000121019101F0AFFA019845
:100DD000FFF7A8FFFFE702B080BD0000FFE7FEE7D6
:100DE00080B584B0FFF7EAFA0C20C0F214000121AC
:100DF000029100F01BFB02F015F843200022039241
:100E0000114601F007F80299039A40F2FC00C2F281
:100E100000006B46186040F20030C2F2000040F261
:100E2000D403C2F2000303F0EDF904B080BD00006A
:100E300080B584B08DF80F008DF80E1040F20030B0
:100E4000C2F20000043002900298019001984068BC
:100E5000406A00909DF80F0040F29F21C2F200010D
:100E600008709DF80E008870FFE7009890F8550014
:100E700001280DD1FFE70099002081F85500029864
:100E800040F29F21C2F20001082202F009F800E0BE
:100E9000EBE7FFF793FAFFE7009890F85500012879
:100EA0000DD1FFE70099002081F85500029840F22B
:100EB0009F21C2F20001082201F0F2FF00E0EBE7FF
:100EC00004B080BD81B08DF803009DF903000028B7
:100ED0000ED4FFE79DF9031001F01F02012090409E
:100EE0004A094EF20011CEF2000141F82200FFE75C
:100EF00001B070474EF60C50CEF200000068C0F30F
:100F00000220704782B08DF8070000919DF907001C
:100F100000280AD4FFE7009800019DF907104EF25F
:100F20000042CEF2000288540BE0009800019DF8C8
:100F3000071001F00F014EF61452CEF20002885451
:100F4000FFE702B07047000083B00290029800F003
:100F5000070000904EF60C51CEF200010868019097
:100F600001984FF6FF02104001900198009A40EA64
:100F700002200022C0F2FA5210430190019808604A
:100F800003B0704780B584B0039000208DF80B004B
:100F9000039801900198812102F094FD9DF80B00C7
:100FA00004B080BD80B586B0059000218DF8131087
:100FB0000598039003984068406A0290039803F0F4
:100FC0004BF80190029890F85600092805D1FFE7E8
:100FD0000299002081F85600FFE79DF8130006B043
:100FE00080BD000082B0019000208DF803009DF8C4
:100FF000030002B07047000085B004908DF80F1018
:1010000000208DF80E000498029002984068406A13
:1010100001909DF80F0001460091012808D0FFE7DC
:101020000098022805D0FFE70098032806D006E0C4
:1010300006E00199012081F8540001E000E0FFE79B
:101040009DF80E0005B0704784B003908DF80B102A
:1010500000208DF80A000398019001984068406ACA
:1010600000900099012081F855009DF80A0004B015
:101070007047000080B584B0039000208DF80B000D
:101080000398019001984068406A0090019881217E
:101090000322402302F03EFD0099012081F8550013
:1010A0009DF80B0004B080BD82B001908DF8031054
:1010B00000208DF802009DF8020002B07047000089
:1010C00080B58CB00B900A9100208DF827000B980A
:1010D000089008984068406A07900A98007800F0E5
:1010E00060000146049100283CD0FFE704982028C6
:1010F00040F09180FFE70A9840780238014603915A
:1011000009282AD80399DFE801F0150A2828282899
:10111000281C10050A9880780799086021E0089833
:101120000799012202F0EAFA1BE00A98C0780799B1
:10113000486016E0089807990431012202F0DEFAAF
:101140000FE00799092081F85600089807990C319B
:101150000A9AD28802F0A4FA03E0089802F0FCFA96
:10116000FFE75CE00A98407801460291062808D023
:10117000FFE702980A2840D0FFE702980B2843D0E7
:1011800047E00A98C078222815D1FFE70A98C0885E
:10119000402803DBFFE73F20019003E00A98C08866
:1011A0000190FFE70198ADF81A0040F29400C2F2F6
:1011B000000005901AE00A98C078212815D1FFE7B1
:1011C0000A98C0880A2803DBFFE70920009003E0A3
:1011D0000A98C0880090FFE70098ADF81A0040F226
:1011E0003000C2F200000590FFE7FFE7089805997C
:1011F000BDF81A2002F082FA0CE00898079908312D
:10120000012202F07BFA05E00A984088079988607D
:1012100000E0FFE703E0089802F09EFAFFE79DF880
:1012200027000CB080BD000082B0019000208DF836
:1012300003009DF8030002B07047000081B08DF8F4
:1012400003009DF8032041F20401C4F20201086882
:1012500002F00F0220F0F00040EA0210086001B036
:101260007047000081B08DF803009DF8032041F223
:101270000401C4F20201086802F0070220F4E060F1
:1012800040EA0220086001B07047000081B08DF88C
:1012900003009DF8032041F20401C4F20201086832
:1012A00002F0070220F4605040EAC220086001B05A
:1012B0007047000081B08DF803009DF803000128FD
:1012C00009D1FFE741F25401C4F20201086840F07D
:1012D0003000086008E041F25401C4F202010868DD
:1012E00020F030000860FFE701B0704782B08DF851
:1012F00007008DF806109DF80700014600910428AC
:1013000044D80099DFE801F0030E1D2C37009DF84A
:10131000062041F20001C4F20201086862F30000F5
:10132000086034E09DF8062041F20001C4F2020199
:10133000086802F0010220F4803040EA02400860B0
:1013400025E09DF8062041F20001C4F20201086880
:1013500002F0010220F0807040EA0260086016E0AE
:101360009DF8062041F22001C4F20201086862F3F0
:10137000000008600BE09DF8062041F22401C4F251
:101380000201086862F30000086000E0FFE702B0B5
:101390007047000082B0019000208DF80300BDF876
:1013A000060041F20001C4F202014058019901F027
:1013B0001F01C840C00720B9FFE700208DF80300D7
:1013C00003E001208DF80300FFE79DF8030002B061
:1013D0007047000081B08DF803009DF8032041F2B2
:1013E0003001C4F20201086802F0010220F000702E
:1013F00040EA4260086001B07047000080B582B0EA
:101400008DF807000120FFF7E5FF9DF8072041F266
:101410005401C4F20201086802F0010220F40070D5
:1014200040EA4220086002B080BD000082B0019016
:101430008DF803109DF8030001280FD1FFE70198F4
:1014400000F01F02012101FA02F3010C41F2000237
:10145000C4F202028858184388500EE0019800F048
:101460001F02012101FA02F3010C41F20002C4F251
:101470000202885898438850FFE702B07047000086
:1014800083B08DF80B008DF80A10002001908DF8C4
:1014900003009DF80B00B0B9FFE741F20401C4F26C
:1014A0000201086820F48030086040F60010C0F2A5
:1014B0003D00019041F23001C4F20201086840F0A1
:1014C0000070086029E041F20401C4F202010868DA
:1014D00040F4803008609DF80B0001280ED1FFE732
:1014E00041F20020C0F27A00019041F20401C4F2FE
:1014F0000201086820F4003008600DE040F600109A
:10150000C0F23D00019041F20401C4F202010868FA
:1015100040F400300860FFE7FFE7019848F26121DE
:10152000C0F23B0188420CD3FFE7019844F63F31FB
:10153000C0F24C01884204D8FFE700208DF8030078
:1015400068E0019845F68101C0F24F0188420CD352
:10155000FFE7019845F60F61C0F25F01884204D8A9
:10156000FFE701208DF8030053E0019843F2955105
:10157000C0F2770188420CD3FFE7019841F60F31A2
:10158000C0F27F01884204D8FFE702208DF80300F3
:101590003EE0019841F61131C0F27F0188420CD340
:1015A000FFE701984BF61F41C0F2BE01884204D804
:1015B000FFE703208DF8030029E0019846F6293162
:1015C000C0F2EE0188420CD3FFE701984DF22F7173
:1015D000C0F23D11884204D8FFE704208DF80300D3
:1015E00014E001984DF23171C0F23D1188420CD3E4
:1015F000FFE701984EF6D711C0F2DC11884204D8FB
:10160000FFE705208DF80300FFE7FFE7FFE7FFE7AF
:10161000FFE7FFE79DF80A0000F00F0241F2040126
:10162000C4F20201086820F4701040EA82400860A9
:101630009DF80A0000F03002086820F0C04040EA3F
:10164000426008609DF8032041F22C01C4F20201BF
:10165000086802F0070220F0E06040EA02600860DB
:1016600003B0704741F20001C4F20201086840F083
:1016700001000860FFE741F20000C4F202000068C8
:101680004008C00708B9FFE7F5E741F20401C4F2DA
:101690000201086820F003000860FFE741F204003F
:1016A000C4F2020000688008800708B1FFE7F5E790
:1016B00041F20001C4F2020108684FF6FF72CFF652
:1016C000F2621040086041F20401C4F202010020FD
:1016D000086041F22C01C4F2020141F6107008606A
:1016E00041F23001C4F202014FF48010086041F26F
:1016F0000801C4F202014FF41F00086070470000A7
:1017000081B08DF803009DF8032041F20401C4F27A
:101710000201086862F30100086001B07047000030
:1017200041F20400C4F202000068C0F38100704777
:1017300081B08DF803009DF8030000F0030241F230
:101740000401C4F20201086820F4400040EA82501B
:1017500008609DF803200868C2F3840262F3DB602E
:10176000086001B07047000080B582B08DF80700B6
:101770009DF80700012804D1FFE70120FFF73EFE96
:10178000FFE79DF8072041F25401C4F20201086806
:1017900002F0010220F4807040EA0220086002B0EA
:1017A00080BD000080B582B0FEF7E6FF8DF807002F
:1017B0009DF8070028B3FFE7FEF742FF9DF80700FA
:1017C00001380146009107281AD80099DFE801F096
:1017D0000409180E1818181330202621FFF728FBCB
:1017E0000EE030202521FFF723FB09E030202421E3
:1017F000FFF71EFB04E030202321FFF719FBFFE772
:10180000FFE702B080BD000080B582B044F6BC3076
:10181000C0F6000040F29F11C2F20001019103F0F6
:101820000FF90199024640F2A840C2F2000002807E
:10183000416002B080BD000040F20000C2F2000032
:101840007047000040F20800C2F20000704700003C
:1018500080B582B044F6A930C0F6000040F29F1176
:10186000C2F20001019103F0EBF80199024640F247
:10187000A840C2F200000280416002B080BD0000BA
:1018800040F22410C2F200007047000080B582B020
:1018900044F6CC30C0F6000040F29F11C2F20001C5
:1018A000019103F0CDF80199024640F2A840C2F23E
:1018B00000000280416002B080BD0000002070473F
:1018C00080B582B044F6A030C0F6000040F29F110F
:1018D000C2F20001019103F0B3F80199024640F20F
:1018E000A840C2F200000280416002B080BD00004A
:1018F0000020704780B500F005F840F22C10C2F2CD
:10190000000080BD80B584B04FF2E870C1F6FF7072
:10191000006803904FF2EC70C1F6FF70006802900F
:101920004FF2F070C1F6FF700068019001990398C2
:1019300008440390039888B1FFE7039840F2400100
:10194000C2F2000100910231082202F09BFC0099D2
:1019500002981231042202F095FCFFE704B080BD2A
:1019600082B00190ADF80210BDF802000199486103
:1019700002B0704782B00190ADF80210BDF80200CD
:101980000199086102B0704781B0009000994FF64C
:10199000FF70086000990020887100990871009913
:1019A0000420487100990120C87101B070470000FF
:1019B00084B00390029102980068ADF8000002988C
:1019C0008079032804D1FFE70020ADF802002FE062
:1019D00002988079E0B9FFE70298407900F00F00A3
:1019E000ADF8020002984079182805D1FFE7BDF84C
:1019F0000000039908610AE002984079282805D17F
:101A0000FFE7BDF8000003994861FFE7FFE70EE03C
:101A100002990A798879C97900F0080002F0040275
:101A2000104401F003010844ADF80200FFE7FFE7AE
:101A30009DF8000040B3FFE700200190FFE7019808
:101A4000072820D8FFE70199BDF80000C840C0076B
:101A5000A0B1FFE7019881000F2000FA01F203997D
:101A6000086890430860BDF802000199890000FAF7
:101A700001F20399086810430860FFE7FFE7019847
:101A800001300190DBE7FFE7BDF80000B0F5807F93
:101A90002CDBFFE79DF80100ADF80000002001906D
:101AA000FFE70198072820D8FFE70199BDF800005B
:101AB000C840C007A0B1FFE7019881000F2000FADD
:101AC00001F20399486890434860BDF8020001990B
:101AD000890000FA01F20399486810434860FFE763
:101AE000FFE7019801300190DBE7FFE704B07047A2
:101AF00082B00190ADF8021000208DF80100BDF811
:101B00000200019989680140884204D0FFE7002063
:101B10008DF8010003E001208DF80100FFE79DF83A
:101B2000010002B07047000085B004908DF80F10DE
:101B30009DF813000021C4F2010108430290BDF892
:101B400012008DF803000498000A8DF80200049832
:101B50008DF801009DF802009DF803100844C0F1C3
:101B600020014FF0FF308840019001989DF802104D
:101B70009DF803201144C1F12001C8400190019853
:101B80009DF80310C840019001989DF8031088400B
:101B90000190019A02990868904308609DF80F002F
:101BA00058B1FFE79DF801009DF8031000FA01F21B
:101BB0000299086810430860FFE705B0704700000D
:101BC00080B584B08DF80F009DF80F0000F082F909
:101BD0009DF80F0000F042F900208DF80E00322031
:101BE000FFF7D4F80A200290FFE70298012814DBDF
:101BF000FFE79DF80F00FEF7F7FEB0FA80F040090E
:101C00000190019820B1FFE701208DF80E0004E05B
:101C1000FFE7029801380290E7E79DF80F0000F017
:101C200031F99DF80F0000F09BF93220FFF7AEF874
:101C30009DF80E0004B080BD80B582B08DF807001D
:101C40009DF8070000F046F99DF8070000F00AF83B
:101C50009DF8070000F084F93220FFF797F802B0F2
:101C600080BD000080B582B08DF807009DF80700A8
:101C700000F0F4F83220FFF789F89DF8070000F033
:101C800001F902B080BD000080B582B08DF8070078
:101C90009DF8070000F00AF99DF8070000F0DEF853
:101CA00002B080BD80B582B08DF807008DF80610B7
:101CB0009DF8070000F0E6F807200090FFE7009885
:101CC000002816D4FFE79DF807009DF80610009B3A
:101CD00001229A40114000F02DF93220FFF756F80A
:101CE0009DF80700FFF7BEFFFFE70098013800905E
:101CF000E5E702B080BD000080B582B08DF8070036
:101D00008DF806108DF805209DF8050038B1FFE725
:101D10009DF8060040F001008DF8060006E09DF8F1
:101D2000060000F0FE008DF80600FFE79DF80700B2
:101D300000F0A8F807200090FFE70098002816D4CC
:101D4000FFE79DF807009DF80610009B01229A40CE
:101D5000114000F0EFF83220FFF718F89DF8070067
:101D6000FFF780FFFFE7009801380090E5E702B039
:101D700080BD000080B582B08DF807009DF8070097
:101D800000F094F89DF8070000F068F83220009009
:101D9000FEF7FCFF9DF8070000F0B8F80098FEF78A
:101DA000F5FF9DF8070000F06DF86420FEF7EEFFE8
:101DB00002B080BD80B582B08DF807009DF80700A5
:101DC00000F0A4F89DF8070000F048F832200090D9
:101DD000FEF7DCFF9DF8070000F068F80098FEF7BA
:101DE000D5FF02B080BD000080B582B00020019018
:101DF000FEF768FFFFE7FEF78FFF48B1FFE700201F
:101E0000FEF790FFFFF7CEFC0A20FEF721FCFFE76C
:101E1000F1E7000080B584B08DF80F0002910192C7
:101E200000200090FFF766F80299019AFEF766FC21
:101E300000909DF90F000099FFF764F89DF90F00DD
:101E4000FFF740F804B080BD80B582B08DF8070080
:101E50009DF80700FFF778F802B080BD80B582B02A
:101E60008DF807009DF80700012808D1FFE740F62C
:101E70000000C4F201004021FEF7D6FAFFE702B0ED
:101E800080BD000080B582B08DF807009DF8070086
:101E9000012808D1FFE740F60000C4F2010040210C
:101EA000FEF7B6FAFFE702B080BD000080B582B051
:101EB0008DF807009DF80700012808D1FFE740F6DC
:101EC0000000C4F201001021FEF7AEFAFFE702B0F5
:101ED00080BD000080B584B08DF80F0001A8FFF729
:101EE00053FD00208DF80A009DF80F0001280AD14B
:101EF000FFE71020019040F60000C4F2010001A9A4
:101F0000FFF756FDFFE704B080BD000080B582B04A
:101F10008DF807009DF80700012808D1FFE740F67B
:101F20000000C4F201001021FEF772FAFFE702B0D0
:101F300080BD000080B582B08DF807008DF80610D6
:101F40009DF8060028B1FFE79DF80700FFF7AEFFF8
:101F500004E09DF80700FFF7D9FFFFE702B080BD5E
:101F600080B584B08DF80F0001A8FFF70DFD0420A7
:101F70008DF808008DF8090010208DF80A00012066
:101F80008DF80B009DF80F0001280AD1FFE7102003
:101F9000019040F60000C4F2010001A9FFF708FD1E
:101FA000FFE704B080BD000080B582B042F20001BE
:101FB000C4F202014FF4AA700860FFF753FB00203F
:101FC0000121FFF793F9FFE70120FFF7E3F901286B
:101FD00001D0FFE7F8E700202321FFF751FA0220A4
:101FE0000121FFF783F9FFE71920FFF7D3F9012853
:101FF00001D0FFE7F8E70020FFF720F90420019067
:10200000FFF744F90198FFF72DF90120FFF752F986
:102010000220FFF775FBFFE7FFF782FB022801D0E4
:10202000FFE7F9E700200090FFF744F90520FFF7EC
:102030007FFB0098FFF798FB00F002F802B080BD2C
:1020400080B58CB0002000900B900A900990089009
:1020500007900690059004900390FFF761FB8DF8C0
:102060000B009DF80B000146019140B1FFE701987C
:1020700001282BD0FFE70198022831D0D6E041F2A9
:102080005400C4F202000068400AC00798B1FFE79C
:1020900041F23000C4F202000068400EC00750B1A7
:1020A000FFE740F23411C2F2000146F60040C0F2F0
:1020B000DC20086009E040F23411C2F2000141F274
:1020C0000020C0F27A000860FFE7B9E040F2341166
:1020D000C2F2000141F20020C0F27A000860AFE0D5
:1020E00041F20400C4F202000068C0F3004009900D
:1020F00041F22C00C4F2020001680020B0EBD17F55
:1021000050D1FFE741F20400C4F202000168C1F3BC
:1021100083410B910068C0F341700A900A9820B97E
:10212000FFE70B980F2807D1FFE70A990B9800EB00
:10213000011001300B9003E00B9802300B90FFE789
:10214000099860B9FFE70B9840F60011C0F23D0115
:10215000484340F23411C2F20001086021E041F22C
:102160000400C4F202000068400CC00760B1FFE741
:102170000B9840F60011C0F23D01484340F2341183
:10218000C2F2000108600BE00B9841F20021C0F29E
:102190007A01484340F23411C2F200010860FFE7BF
:1021A000FFE742E041F22C00C4F202000168C1F3F3
:1021B000031105910168C1F308210491006800F042
:1021C00007000390099830B9FFE740F60010C0F20D
:1021D0003D00069015E041F20400C4F202000068E0
:1021E000400CC00730B1FFE740F60010C0F23D00E0
:1021F000069005E041F20020C0F27A000690FFE769
:10220000FFE706980499A0FB0101059ADDF80CC0D0
:10221000012303FA0CF35A430023FEF717F840F2A8
:102220003411C2F200010860FFE709E040F2341106
:10223000C2F2000141F20020C0F27A000860FFE71C
:1022400041F20400C4F202000068C0F303100890D9
:10225000089944F6D330C0F60000405C079040F285
:102260003411C2F200010868079AD04008600CB02F
:1022700080BD000083B00290019100920198029904
:10228000C8620098029988620299486940F001008A
:10229000486103B07047000085B004908DF80F10BE
:1022A00002929DF80F00ADF80600BDF80600014649
:1022B0000091062816D80099DFE801F004140814EC
:1022C0000C1410000298049948630CE002980499D9
:1022D000886308E002980499C86304E002980499AE
:1022E000086400E0FFE705B07047000082B001908D
:1022F0008DF803109DF803200199086802F0070289
:1023000020F0700040EA0210086002B07047000040
:1023100082B001908DF803109DF8032001990868A0
:1023200062F30000086002B07047000082B00190C4
:1023300000910098C0430199086102B07047000005
:1023400083B00290019100208DF80300029800698B
:102350000199084204D0FFE701208DF8030003E053
:1023600000208DF80300FFE79DF8030003B07047DD
:1023700083B0029001918DF803209DF8030001289D
:1023800006D1FFE7019A0299C8681043C8600AE0C5
:102390009DF8030030B9FFE7019A0299C86890439D
:1023A000C860FFE7FFE703B07047000087B0069002
:1023B0008DF8171004920020ADF80E00ADF80C0057
:1023C000ADF80A009DF817000830ADF808009DF838
:1023D00017000930ADF8060004984078BDF80810E1
:1023E0008840ADF80E0004988078BDF8061088404B
:1023F000ADF80C00BDF80610012000FA01F3069AB2
:10240000516899435160BDF80C30069A51681943E0
:102410005160BDF8081000FA01F20699486890432F
:102420004860BDF80E2006994868104348609DF842
:102430001700ADF80A00BDF80A0001460091062811
:1024400036D80099DFE801F0043410341C34280039
:10245000049802780699886902F0070220F070005B
:1024600040EA0210886124E004980278069988699D
:1024700002F0070220F4E04040EA0230886118E0F0
:10248000049802780699C86902F0070220F07000EB
:1024900040EA0210C8610CE0049802780699C86905
:1024A00002F0070220F4E04040EA0230C86100E098
:1024B000FFE79DF8170040000130ADF808009DF8D7
:1024C0001710032000EB4100ADF806000498C07817
:1024D000BDF808108840ADF80E0004980079BDF8EA
:1024E00006108840ADF80C00BDF80610012000FA77
:1024F00001F3069A116A99431162BDF80C30069AED
:10250000116A19431162BDF8081000FA01F3069A26
:10251000116A99431162BDF80E30069A116A194387
:1025200011629DF817104900ADF808109DF81710BA
:10253000022202EB4101ADF80610049949799DF899
:1025400017305B009940ADF80E10049989799DF819
:10255000173002EB43029140ADF80C10BDF80610A5
:1025600000FA01F3069A116A99431162BDF80C3022
:10257000069A116A19431162BDF8081000FA01F2B7
:102580000699086A90430862BDF80E200699086A09
:102590001043086207B0704781B000900099002096
:1025A000087000994870009988700099C870009967
:1025B0000871009948710099887101B07047000056
:1025C00082B001908DF803109DF803200199486CAA
:1025D00002F0010220F4004040EAC230486402B038
:1025E0007047000081B000900099D1F8040820F0F5
:1025F0000200C1F8040801B07047000082B00190E9
:102600008DF803109DF80300019981F894019DF85D
:102610000300019981F89D010199002081F89F0133
:10262000019981F8A10101994020A1F8980101992F
:10263000042081F8970101994FF4A070A1F89A0144
:102640009DF80300012805D1FFE70199022081F8D8
:102650009C01FFE7002002B07047000081B00090AD
:102660000099D1F8040840F00200C1F8040801B054
:102670007047000081B000900099D1F8000940F245
:10268000FF729043C1F800090099D1F8040820F4C2
:102690008070C1F8040801B07047000082B001905A
:1026A000019800F5306000900099002008610099C1
:1026B0000869012262F3DC40086100990869182268
:1026C00062F3120008610099086940F0C040086197
:1026D00002B0704782B0019000910098807810BBE2
:1026E000FFE701980099097800EB4111D1F8000942
:1026F00020F40010C1F800090098C078032805D024
:10270000FFE70098C07802280CD1FFE701980099F4
:10271000097800EB4111D1F8000940F08050C1F870
:102720000009FFE721E001980099097800EB4111C9
:10273000D1F8000B20F40010C1F8000B0098C0780D
:10274000032805D0FFE70098C07802280CD1FFE7E6
:1027500001980099097800EB4111D1F8000B40F085
:102760008050C1F8000BFFE7FFE702B070470000A0
:1027700082B00190009100988078B8B9FFE7009886
:102780000178012000FA01F20199D1F81C08904368
:10279000C1F81C0801980099097800EB4111D1F8A3
:1027A000000920F40040C1F8000917E00098017802
:1027B000012000FA01F20199D1F81C0820EA024038
:1027C000C1F81C0801980099097800EB4111D1F873
:1027D000000B20F40040C1F8000BFFE702B0704787
:1027E00082B0019000208DF80300FFE79DF8030000
:1027F00003282DDCFFE79DF8030001992C2210FB34
:10280000021108739DF80300019910FB021148732F
:1028100001999DF8030010FB021100208873019BB1
:102820009DF8031011FB02314861019B9DF80310D4
:1028300011FB02310862019B9DF8031011FB02316C
:102840004862FFE79DF8030001308DF80300CDE7F3
:1028500000208DF80300FFE79DF80300032834DC17
:10286000FFE79DF8030001992C2210FB021181F86B
:10287000BC009DF80300019910FB021181F8BD0016
:1028800001999DF8030010FB0211012081F8BE00A0
:1028900001999DF8030010FB02110020C1F8C4004B
:1028A000019B9DF8031011FB0231C1F8D000019B80
:1028B0009DF8031011FB0231C1F8D400FFE79DF829
:1028C000030001308DF80300C6E702B07047000036
:1028D00083B002900191009200980299019A01EB55
:1028E0004211C1F8080903B07047000085B0049098
:1028F00003910498D0F8100801900498D0F8340897
:10290000009000980399C84000F00101019840EA46
:10291000C11001900498039900EB4110D0F8080908
:10292000019908400290029805B0704783B0029068
:10293000019100208DF803000198007840BBFFE76B
:1029400001988068402804D1FFE700208DF803003B
:102950001DE001988068202804D1FFE701208DF850
:10296000030013E001988068102804D1FFE70220DB
:102970008DF8030009E001988068082804D1FFE77A
:1029800003208DF80300FFE7FFE7FFE7FFE7FFE71E
:1029900001988078002862D1FFE701980178012032
:1029A00000FA01F20299D1F81C081043C1F81C0882
:1029B0000198007880B9FFE79DF8032002980199FB
:1029C000097800EB4111D1F8000940F2FF739843F8
:1029D0001044C1F800090CE001998A68029809784E
:1029E00000EB4111D1F8000962F30A00C1F80009B7
:1029F000FFE701980178C278029800EB4111D1F805
:102A0000000902F0030220F4402040EA8240C1F8AD
:102A1000000901980278029800EB4211D1F80009F0
:102A200002F00F0220F0707040EA8250C1F80009F5
:102A300002980199097800EB4111D1F8000940F0A2
:102A40008050C1F8000902980199097800EB411102
:102A5000D1F8000940F40040C1F8000953E00198A2
:102A60000178012000FA01F20299D1F81C0840EA2D
:102A70000240C1F81C080198007880B9FFE79DF872
:102A8000032002980199097800EB4111D1F8000B5D
:102A900040F2FF7398431044C1F8000B0CE0019919
:102AA0008A680298097800EB4111D1F8000B62F3B3
:102AB0000A00C1F8000BFFE701980178C27802987C
:102AC00000EB4111D1F8000B02F0030220F440208A
:102AD00040EA8240C1F8000B02980199097800EBA6
:102AE0004111D1F8000B40F08050C1F8000B029862
:102AF0000199097800EB4111D1F8000B40F4004036
:102B0000C1F8000BFFE703B07047000083B00290EC
:102B10000191009200980299019A01EB4211C1F8CB
:102B2000080B03B07047000083B002900191029837
:102B3000019900EB4110D0F8080B00900098029921
:102B4000D1F81418084003B07047000082B001901B
:102B500000910098807820BBFFE7019800990978E0
:102B600000EB4110D0F800190020B0EBD17F0CD160
:102B7000FFE701980099097800EB4111D1F80009AD
:102B800020F08040C1F80009FFE70198009909781A
:102B900000EB4111D1F8000940F40010C1F8000920
:102BA00023E001980099097800EB4110D0F8001B50
:102BB0000020B0EBD17F0CD1FFE701980099097894
:102BC00000EB4111D1F8000B20F08040C1F8000B60
:102BD000FFE701980099097800EB4111D1F8000B4B
:102BE00040F40010C1F8000BFFE702B0704700008E
:102BF00082B00190002000900199086940F0100017
:102C00000861FFE7019800690009C00760B1FFE7AC
:102C10000098411C009140F64151C0F203018842E6
:102C200001D3FFE700E0EDE702B0704783B0029008
:102C3000019100200090019A0299086902F01F0298
:102C400020F4F86040EA821008610299086940F0B7
:102C500020000861FFE7029800694009C00760B1E1
:102C6000FFE70098411C009140F64151C0F203017A
:102C7000884201D3FFE700E0EDE703B070470000B2
:102C800082B001900198D0F818080090009801993E
:102C9000D1F81C18084080B202B0704782B0019091
:102CA0000198D0F81808009000980199D1F81C18E4
:102CB0000840000C02B0704782B00190009100986B
:102CC0000199486102B0704782B001900198406953
:102CD0000090009801998969084002B0704700008F
:102CE00080B582B00190019800F02EF80199886BB0
:102CF00040F4803088630199886B40F480208863B9
:102D00000199886B40F40020886302B080BD000008
:102D100082B00190ADF802108DF801209DF80100FD
:102D2000012807D1FFE7BDF8022001998869104307
:102D3000886106E0BDF802200199886990438861A6
:102D4000FFE702B07047000082B0019000200090C1
:102D5000FFE7019801690020B0EBD17F0CD1FFE7BC
:102D60000098411C009140F64151C0F20301884295
:102D700001D3FFE700E0ECE700200090019908692B
:102D800040F001000861FFE701980069C00760B1E9
:102D9000FFE70098411C009140F64151C0F2030149
:102DA000884201D3FFE700E0EEE7012002B0704760
:102DB00081B08DF803004FF0A04001B070470000D3
:102DC00082B001900091009858B9FFE70199C86856
:102DD00020F00050C8600199C86840F08040C86089
:102DE000FFE7009801280BD1FFE70199C86820F0A0
:102DF0008040C8600199C86840F00050C860FFE793
:102E0000009802280BD1FFE70199C86820F08040A4
:102E1000C8600199C86820F00050C860FFE702B0A0
:102E20007047000080B584B00220C0F21800012174
:102E30000091FEF7FBFA02A80190FEF7A5FD0098AD
:102E400001998DF80F0000208DF80C0008228DF8F4
:102E50000E2004228DF80D204FF4007202922822D9
:102E60008DF80D208DF80E0040F60000C4F2010030
:102E7000FEF79EFD04B080BD81B000900099886887
:102E800020F00100886001B07047000081B0009020
:102E90000099886840F00100886001B07047000028
:102EA00080B584B003900291ADF8062000208DF823
:102EB000050003980090009800F0D4F9032808D189
:102EC000FFE70098029ABDF80630812100F0EAFE83
:102ED000FFE79DF8050004B080BD000081B00090C0
:102EE0000099D1F8000E20F00100C1F8000E01B0E9
:102EF0007047000086B005900491ADF80E20ADF843
:102F00000C30BDF80C00033080080190049800904C
:102F100000200290FFE70298019988420ED2FFE755
:102F200005984FF48051405800990860009804308B
:102F30000090FFE7029801300290ECE706B070477E
:102F400082B001908DF803109DF803200199D1F80B
:102F5000000802F07F0220F4FE6040EA0210C1F88F
:102F6000000802B07047000082B00190ADF8021076
:102F7000BDF802000199486202B0704784B0039026
:102F80008DF80B10ADF8082000208DF80700009098
:102F90000398406A00909DF80B0040B9FFE7009845
:102FA000BDF8081040EA01400399886230E00398B8
:102FB000816A009800EB1140009000208DF8070016
:102FC000FFE79DF807009DF80B100139884212DADF
:102FD000FFE703989DF8071000EB8100D0F804117B
:102FE000009800EB11400090FFE79DF807000130CA
:102FF0008DF80700E5E70098BDF8081040EA0140A9
:1030000003999DF80B2001EB8201C1F80001FFE755
:1030100004B0704781B000900099D1F8000E40F0E4
:103020000100C1F8000E01B07047000081B00090AF
:103030000098D0F8080800F0010001B070470000C7
:1030400080B588B007900691079800680590079AA8
:1030500006982C2100FB01200C300490049988690B
:10306000C969401A03900020029003980499896866
:10307000884204D9FFE7049880680390FFE703982B
:10308000033080080290FFE70598069900EB411095
:10309000D0F8180981B2029A0020914201900FD90C
:1030A000FFE704988269C16900209142019007D22C
:1030B000FFE704988069002818BF01200190FFE70E
:1030C0000198C00738B3FFE704998869C969401AB5
:1030D0000390039804998968884204D9FFE704980B
:1030E00080680390FFE703980330800802900598FA
:1030F00004994969BDF81820BDF80C3000F01CF89F
:10310000039A0499486910444861039A0499C8696C
:103110001044C861B8E7039858B9FFE70699012041
:1031200000FA01F20599D1F834089043C1F8340847
:10313000FFE708B080BD000086B005900491ADF8AF
:103140000E20ADF80C30BDF80C0003308008019063
:103150000498009000200290FFE7029801998842AD
:1031600012D2FFE7009800680599BDF80E2001EB28
:1031700002314FF480528850009804300090FFE7ED
:10318000029801300290E8E706B0704780B584B03D
:10319000039000208DF80B00039800F5B6700190A5
:1031A000039890F88401023801281BD8FFE70198A2
:1031B0004088012815D1FFE70399002081F8870195
:1031C0000399D1F88C0120F00200C1F88C0103981A
:1031D00041688A6800F5B6719047039800F0ACFA30
:1031E000FFE703E0039800F0B7FAFFE79DF80B0054
:1031F00004B080BD80B584B003908DF80B100398A7
:10320000006800909DF80B00000600280BD5FFE732
:10321000039A9DF80B0000F07F002C2110FB012089
:103220000C3001900AE0039A9DF80B0000F07F003B
:103230002C2110FB0120BC300190FFE70098019980
:10324000FFF748FA01990020487304B080BD0000E0
:1032500080B582B0019001980068FFF7C3F902B011
:1032600080BD000081B00090009890F8840101B00A
:103270007047000080B588B007908DF81B10079A42
:103280009DF81B0000F07F002C2110FB01200C306A
:1032900005909DF81B00002867D1FFE7079890F87C
:1032A0008001022860D1FFE705988168406A884262
:1032B0001FD9FFE705998A68486A801A486207980B
:1032C00003900598816842690492406A884204D25A
:1032D000FFE70598406A029003E005988068029035
:1032E000FFE7049A039802998BB2002100F0DAFC00
:1032F00039E005988168006A88421FD1FFE7059888
:103300008168806A884219D3FFE70598806A079927
:10331000B1F88211884211D2FFE70598002301938A
:103320000362079819461A4600F0BCFC019B0798F7
:103330009DF81B101A4600F029FC13E0079840681E
:10334000C06858B1FFE7079890F88401032805D1B9
:10335000FFE707984168C9688847FFE7079800F0CA
:10336000BDF9FFE7FFE7FFE712E007984068406913
:1033700068B1FFE7079890F88401032807D1FFE7B9
:10338000079841684A699DF81B109047FFE7FFE7DF
:1033900008B080BD80B58CB084460E98CDF82CC0A6
:1033A0000A91099208938DF81F000A980B990860FA
:1033B0000A980690069800F5006005900B99012088
:1033C00081F884010B990020019081F88601099809
:1033D0000B99486008980B9988600B9800F02EFABA
:1033E0000B98FFF7FDF90698FFF746FD0698FFF7E3
:1033F00077FC01990698FFF7E3FC0B980068FFF74C
:103400006DFD0599086820F4C050086005990868AA
:1034100040F00300086006981021FFF707FC0698AB
:10342000FFF7E6FB0198059A4FF0FF31916105998E
:10343000C86105990861059948610290FFE7029803
:1034400003280CD8FFE70698029900EB81010020C1
:10345000C1F80401FFE7029801300290EFE70B98F2
:1034600000F0E8FC00200290FFE7029803282BD828
:10347000FFE70698029900EB411000F510600490F8
:10348000049801680020B0EBD17F0ED0FFE70499CB
:10349000002008600499086840F0804008600499A2
:1034A000086840F00060086003E0049900200860AC
:1034B000FFE70499002008610499FF208860FFE776
:1034C000029801300290D0E700200290FFE70298B6
:1034D00003282BD8FFE70698029900EB411000F56E
:1034E00030600390039801680020B0EBD17F0ED0CC
:1034F000FFE70399002008600399086840F08040C6
:1035000008600399086840F00060086003E00399D0
:1035100000200860FFE70399002008610399FF205D
:103520008860FFE7029801300290D0E705990869AA
:1035300040F4807008610699002000908861069927
:103540006FF080404861069943F61C00C8F23C00C9
:1035500088610B98FFF77CFE0698FFF797FC0098B0
:103560000CB080BD80B588B007908DF81B10079A0D
:103570009DF81B0000F07F002C2110FB0120BC30C7
:1035800005909DF81B0000283FD1FFE7079890F8B1
:103590008001032838D1FFE705988168406A884296
:1035A00023D9FFE705998A68486A801A4862079814
:1035B00002909DF81B00039005988168426904926F
:1035C000406A884204D2FFE70598406A019003E010
:1035D000059880680190FFE7049A02980399019B7F
:1035E000C9B29BB200F0D2FA0DE0079840680069BA
:1035F00028B1FFE70798416809698847FFE70798FE
:1036000000F09AF8FFE7FFE712E00798406880694A
:1036100068B1FFE7079890F88401032807D1FFE716
:10362000079841688A699DF81B109047FFE7FFE7FC
:1036300008B080BD80B584B003908DF80B1003995D
:1036400001F5B67001F5BA7101F0A2F903990120F4
:1036500081F880010399B1F87201A1F88201039801
:1036600090F86C0100F01F000146019140B1FFE7A6
:103670000198012808D0FFE70198022808D00BE044
:10368000039800F077F808E0039800F037FE04E0B4
:10369000039800F0DDF800E0FFE704B080BD000013
:1036A00080B584B003900291ADF806200398BC3039
:1036B0000090BDF8060000998862BDF806000099E8
:1036C00048620399032081F880010398029ABDF8AB
:1036D0000630002100F05AFA04B080BD80B582B0F7
:1036E00001900199052081F8800101980023194675
:1036F0001A4600F04BFA02B080BD000080B584B0DD
:1037000003900291ADF8062003980C300090BDF8AC
:10371000060000998862BDF8060000994862039986
:10372000022081F880010398029ABDF8063000213A
:1037300000F0B8FA04B080BD80B582B00190019964
:10374000042081F880010198002319461A4600F0F0
:10375000A9FA02B080BD000080B582B00190019846
:10376000002101F0E7F80198802101F0E3F802B0B0
:1037700080BD000080B586B0049000208DF80F0059
:10378000049800F5B67002900298007810F0600F6F
:103790000BD0FFE7049841688A6800F5B67190473E
:1037A0009DF80F008DF8170033E0049890F86D0134
:1037B00001460191092823D80199DFE801F00509A4
:1037C000210D21111521191D049800F057FC1BE053
:1037D0000498FFF7DBFC17E0049801F089F813E088
:1037E000049800F0AFFF0FE0049800F085FB0BE0B9
:1037F000049800F047FB07E0049800F0E5FF03E0C1
:103800000498FFF7A9FFFFE79DF80F008DF8170058
:10381000FFE79DF8170006B080BD000080B582B0BC
:10382000019001984068006A30B1FFE70198416853
:103830000A6A04219047FFE702B080BD80B582B0DC
:10384000019001980068FEF709FF02B080BD0000FA
:1038500080B58AB0099000208DF82300099800F502
:10386000B6700790079880888DF81B00079800783D
:1038700000F06000202807D1FFE7099841688A68B6
:1038800000F5B6719047FFE707984078014604912C
:1038900048B1FFE70498012852D0FFE704980328B5
:1038A00000F08980C6E0099890F8840101460391F0
:1038B000022804D0FFE7039803280CD03BE09DF8D2
:1038C0001B00400630B1FFE709989DF81B1001F07E
:1038D00031F8FFE733E09DF81B00000600280BD508
:1038E000FFE7099A9DF81B0000F07F002C2110FBD8
:1038F00001200C3005900AE0099A9DF81B0000F0A9
:103900007F002C2110FB0120BC300590FFE70598BB
:10391000407B012804D1FFE705990120086103E0FD
:10392000059900200861FFE70998059910310222E6
:10393000FFF7E4FE03E00998FFF70EFFFFE77DE0E5
:10394000099890F8840101460291022804D0FFE70B
:103950000298032810D029E09DF81B0058B1FFE71A
:103960009DF81B00802806D0FFE709989DF81B10E2
:1039700000F0E0FFFFE71DE007984088A8B9FFE7E7
:103980009DF81B00400660B1FFE709989DF81B10E9
:10399000FFF730FC099841688A6800F5B6719047D6
:1039A000FFE70998FFF7C8FEFFE703E00998FFF774
:1039B000D3FEFFE742E0099890F8840101460191A7
:1039C000022804D0FFE70198032810D02DE09DF8CD
:1039D0001B0058B1FFE79DF81B00802806D0FFE7C9
:1039E00009989DF81B1000F0A5FFFFE721E007985C
:1039F000408880B9FFE79DF81B0058B1FFE79DF8AC
:103A00001B00802806D0FFE709989DF81B1000F0E6
:103A100091FFFFE7FFE7099841688A6800F5B671F2
:103A200090470998FFF788FE03E00998FFF794FE96
:103A3000FFE703E00998FFF78FFEFFE79DF82300FB
:103A40000AB080BD80B582B0019001980068FFF790
:103A5000EDFA012805D1FFE701980068FFF7DAFACF
:103A6000FFE702B080BD000080B584B003900398EA
:103A7000006802900298FEF7FDFD0299C8680522D1
:103A800062F38D20C86003980022009240230193C6
:103A9000114600F03FF8009A019B0398802100F046
:103AA00039F80399012081F884010398406840683F
:103AB00028B1FFE70398416849688847FFE704B0E9
:103AC00080BD000080B584B003908DF80B109DF888
:103AD0000B00000600280BD5FFE7039A9DF80B00AA
:103AE00000F07F002C2110FB01200C3001900AE037
:103AF000039A9DF80B0000F07F002C2110FB0120A1
:103B0000BC300190FFE7039800680199FEF730FE92
:103B100004B080BD80B584B003908DF80B108DF893
:103B20000A20ADF808300398006801909DF80B005A
:103B3000000600280ED4FFE7039A9DF80B0000F062
:103B40007F002C2110FB0120BC3000900099012047
:103B500088700DE0039A9DF80B0000F07F002C2187
:103B600010FB01200C300090009900208870FFE7C6
:103B7000BDF80800009988609DF80A000099C87097
:103B800001980099FEF7D2FE04B080BD89B008907C
:103B90008DF81F100692ADF8163008980068049052
:103BA000089A9DF81F0000F07F002C2110FB0120D7
:103BB000BC30039004980399097800EB411000F59C
:103BC00030600290049800F5006001900698039917
:103BD0004861BDF816000399886103990020C86107
:103BE0009DF81F00400620B9FFE7039988688861A7
:103BF000FFE70398806928B1FFE79DF81F004006A2
:103C000070B9FFE7039882680299086962F31200AD
:103C1000086102990869012262F3DC4008611CE036
:103C200003988168806908440138B0FBF1F0009086
:103C300003988068009900FB01F20299086962F319
:103C400012000861009A029908696FF39F226FF3CE
:103C5000DC4040EAC2400861FFE70398C0780128D1
:103C600013D1FFE701988068000AC00730B9FFE769
:103C70000299086840F00050086005E00299086861
:103C800040F080500860FFE7FFE70299086840F0C5
:103C9000806008600299086840F00040086009B040
:103CA0007047000080B58AB009908DF82310079204
:103CB000ADF81A30099800680590099A9DF823001C
:103CC00000F07F002C2110FB01200C30049005989F
:103CD0000499097800EB411000F5106003900598F5
:103CE00000F500600290079804994861BDF81A0039
:103CF0000499886104990020C8610498806960B9BA
:103D0000FFE703990869012262F3DC400861039927
:103D100008696FF31200086146E09DF82300400631
:103D2000D8B9FFE7049881688069884204D9FFE721
:103D3000049988688861FFE7049882690399086993
:103D400062F31200086103990869012262F3DC4002
:103D5000086104998869086225E00498816880698F
:103D600008440138B0FBF1F001900498826903998E
:103D7000086962F312000861019A039908696FF3F8
:103D80009F226FF3DC4040EAC24008610498C0788B
:103D9000012807D1FFE703990869012262F35E70E9
:103DA0000861FFE7FFE7FFE70498C07801280FD01C
:103DB000FFE70498806950B1FFE70498017801207B
:103DC00000FA01F20299486B10434863FFE7FFE7EE
:103DD0000498C078012813D1FFE702988068000A90
:103DE000C00730B9FFE70399086840F00050086049
:103DF00005E00399086840F080500860FFE7FFE79E
:103E00000399086840F0806008600399086840F0F2
:103E1000004008600498C078012808D1FFE70598A1
:103E2000049B59691A781B8BFFF786F9FFE70AB0E4
:103E300080BD000080B584B00390039800680290B4
:103E40000298B0F1A04F1AD1FFE702988021FFF746
:103E50008BF8029800211822FFF790F802980121B0
:103E600014220192FFF78AF8019A02980221FFF7C3
:103E700085F8019A02980321FFF780F8FFE704B064
:103E800080BD000080B584B0039000208DF80B0049
:103E9000039800F5B67001900198C088012804D0FD
:103EA000FFE70398FFF758FC22E0039890F884019D
:103EB00001460091022804D0FFE7009803280BD0A8
:103EC00011E00399002081F88801039800F5C4717E
:103ED0000122FFF713FC0AE0039800F28911012286
:103EE000FFF70CFC03E00398FFF736FCFFE7FFE762
:103EF0009DF80B0004B080BD80B588B0069000200E
:103F00008DF81700ADF814000490069890F86F0132
:103F10008DF80F009DF80F00013801460291062828
:103F20005FD80299DFE801F0040A105D5D51550089
:103F3000069880680068804704905AE00698806878
:103F400080688047049054E0069890F86E018DF8E0
:103F50000E009DF80E0001460191052829D801990F
:103F6000DFE801F003090F151B210698806800693E
:103F70008047049028E00698806840698047049054
:103F800022E0069880688069804704901CE00698CB
:103F90008068C0698047049016E006988068406A8F
:103FA0008047049010E006988068006A804704907B
:103FB0000AE0069841688A6800F5B67190479DF856
:103FC00017008DF81F0042E013E00698FFF7C4FBCE
:103FD0000FE00698FFF7C0FB9DF817008DF81F0053
:103FE00035E00698FFF7B8FB9DF817008DF81F0025
:103FF0002DE0049830B3FFE70498008808B3FFE78A
:104000000698B0F87201E0B1FFE7049800880699BD
:10401000B1F87211884204DAFFE704980088009032
:1040200004E00698B0F872010090FFE70098ADF840
:104030001400069804994968BDF81420FFF75EFB48
:10404000FFE7FFE79DF817008DF81F00FFE79DF8D9
:104050001F0008B080BD000083B002908DF80710EB
:10406000029A9DF8070000F07F002C2110FB012030
:10407000BC3000900098C06903B0704780B582B032
:10408000019000208DF80300019890F88401023817
:10409000012814D8FFE7019890F8870140B1FFE7A5
:1040A0000199D1F88C0140F00200C1F88C01FFE7C2
:1040B000019800F5C6710222FFF720FB03E001988A
:1040C000FFF74AFBFFE79DF8030002B080BD000048
:1040D00080B582B0019001984068006A30B1FFE776
:1040E000019841680A6A05219047FFE702B080BD48
:1040F00080B582B0019001984068006A30B1FFE756
:10410000019841680A6A06219047FFE702B080BD26
:1041100080B586B005900598006804900020039053
:104120000498FEF7ADFD0190FFE70198002867D0E5
:10413000FFE79DF80400C00700285AD0FFE7049865
:104140000399FEF7D3FB02909DF80800C007A0B1C9
:10415000FFE70398012202FA00F30499D1F834082A
:104160009843C1F8340804980399FEF7B1FB059809
:104170009DF80C10FFF77EF8FFE79DF80800000798
:10418000002806D5FFE7049803990822FEF7A0FB54
:10419000FFE79DF80800C006002806D5FFE7049851
:1041A00003991022FEF794FBFFE79DF808004006F4
:1041B000002806D5FFE7049803994022FEF788FB04
:1041C000FFE79DF808008007002806D5FFE7049860
:1041D00003990222FEF77CFBFFE79DF8080000062A
:1041E000002805D5FFE705980399FEF729FFFFE7AB
:1041F000FFE703980130039001984008019094E78D
:1042000006B080BD80B586B0DDF820C005908DF881
:1042100013108DF81220039300208DF80B009DF8E9
:104220001200FEF7C5FD0599086005989DF813106A
:10423000FEF7E4F9059890F89F0138B1FFE705987B
:104240000168886B40F480108863FFE7059890F858
:10425000A10138B1FFE705980168886B40F40010B0
:104260008863FFE7059850F8041B039A089B9DF8A4
:1042700013C0EE46CEF800C0FFF78CF89DF80B0097
:1042800006B080BD83B0029001918DF8032000201C
:104290008DF80200FFE79DF802009DF803108842A8
:1042A00029DAFFE70298000F092809D8FFE70298EA
:1042B000000F303001999DF8022001F8120009E04A
:1042C0000299372000EB117001999DF8022001F846
:1042D0001200FFE702980001029001989DF8021079
:1042E00000EB410100204870FFE79DF8020001301B
:1042F0008DF80200CFE703B07047000080B584B0AE
:10430000039000208DF80B00039800F5B670019023
:10431000039890F8840103280FD1FFE703984168C0
:104320008A6800F5B67190470198C08820B9FFE708
:104330000398FFF701FAFFE703E00398FFF70CFA91
:10434000FFE79DF80B0004B080BD000080B586B08B
:10435000059005980068049005980430039004982F
:10436000FEF7B2FC029004984069C007002840F0B4
:10437000B180FFE79DF808008007002805D5FFE71A
:1043800004980221FEF798FCFFE79DF80A00400719
:10439000002804D5FFE70398FFF7BAFEFFE79DF872
:1043A0000A000007002804D5FFE7039800F094F8FE
:1043B000FFE79DF80900C006002809D5FFE703982C
:1043C00000F0F6F804984FF48051FEF775FCFFE713
:1043D0009DF808000007002808D5FFE7039800F0C3
:1043E000F9FA04980821FEF767FCFFE79DF8090039
:1043F0008006002809D5FFE70398FFF735FB0498EE
:104400004FF40051FEF758FCFFE79DF80800C00686
:10441000002804D5FFE7039800F03AF9FFE79DF87C
:104420000A00C006002809D5FFE70398FFF750FEF1
:1044300004984FF48011FEF73FFCFFE79DF8080059
:104440004007002818D5FFE70398006840680190EE
:104450000398006840688008C00720B1FFE7039810
:10446000FFF7DCF9FFE701980399096848600498B1
:104470000421FEF721FCFFE79DF80A0080060028D2
:1044800009D5FFE70398FFF733FE04984FF40011B6
:10449000FEF712FCFFE79DF80B000006002809D587
:1044A000FFE7039800F008FB04984FF00041FEF787
:1044B00003FCFFE79DF809000007002809D5FFE786
:1044C000039800F097FA04984FF40061FEF7F4FBAC
:1044D000FFE7FFE706B080BD80B586B00590059880
:1044E00000680490002003900498FEF7D7FB019029
:1044F000FFE70198002858D0FFE79DF80400C007A7
:1045000000284BD0FFE704980399FEF70DFB0290BB
:104510009DF80800C00758B1FFE7049803990122ED
:10452000FEF7F4FA05989DF80C10FFF71BF8FFE76B
:104530009DF808000007002823D5FFE70498039999
:104540000822FEF7E3FA05989DF80C10FFF772F8C1
:10455000059890F8860198B1FFE7059890F88621B4
:104560000168D1F8000802F07F0220F4FE6040EA02
:104570000210C1F800080599002081F88601FFE7C4
:10458000FFE79DF80800C006002806D5FFE704985D
:1045900003991022FEF7BAFAFFE7FFE7039801300C
:1045A0000390019840080190A3E706B080BD000089
:1045B00080B586B00590059800680490049800F5D1
:1045C000006003900020019002900399486820F059
:1045D000010048600598FFF72DFC04981021FEF7B4
:1045E00025FB01980290FFE70298032812D8FFE705
:1045F0000498029900EB4111FF20C1F808090499C1
:10460000029A01EB4211C1F8080BFFE70298013052
:104610000290E9E703994FF0FF30886103994FF06A
:104620000110C8610399486940F00100486103998D
:10463000486940F0020048610399486940F0080069
:1046400048610399086940F001000861039908690D
:1046500040F0020008610399086940F00800086111
:1046600004980021FEF76CFC0498FEF717F80599F2
:10467000012081F8840105984068006A30B1FFE7A5
:10468000059841680A6A01219047FFE706B080BD9E
:1046900080B586B0059005980068049004981021B4
:1046A0000022FEF735FB0498006A03900398C0F3DC
:1046B0000A1002900398C0F343400190059A0398B2
:1046C00000F00F002C2110FB0120BC30009001985D
:1046D000022819D1FFE70298A8B1FFE704980099D2
:1046E0004969039A02F00F02BDF80830FEF702FC98
:1046F000029A0099486910444861029A0099C86971
:104700001044C861FFE715E00198062811D1FFE7C2
:104710000498059901F5BA71039A02F00F02BDF8E9
:104720000830FEF7E7FB029A0099C8691044C86197
:10473000FFE7FFE7049810210122FEF7E9FA06B02F
:1047400080BD000080B584B0039000208DF80B0080
:10475000039800F5B67001900198808860BBFFE770
:104760000198C08840BBFFE70198807800F07F0087
:104770008DF80300039890F88401032804D1FFE723
:104780000398FEF7E9FF16E09DF80300039981F80E
:1047900086019DF8030028B1FFE70399022081F804
:1047A000840104E00399012081F88401FFE7039864
:1047B000FEF7C2FFFFE703E00398FEF7CDFFFFE738
:1047C0009DF80B0004B080BD80B584B0039000203C
:1047D0008DF80B00039800F5B67001900198807871
:1047E00040F2A541C2F200010870019880880028BB
:1047F00076D1FFE70198C088002871D1FFE70398C0
:1048000090F8840101460091022804D0FFE7009847
:10481000032820D05FE040F2A540C2F200000078FB
:10482000A0B1FFE740F2A540C2F200000078039972
:1048300081F889010399032081F884010398416874
:10484000096888470398FEF777FF03E00398FEF7AF
:1048500073FFFFE743E040F2A540C2F2000000789A
:10486000A0B9FFE70399022081F8840140F2A54036
:10487000C2F200000078039981F889010398416829
:10488000496888470398FEF757FF23E040F2A540A8
:10489000C2F200000078039991F88911884214D17E
:1048A000FFE7039841684968884740F2A540C2F293
:1048B00000000078039981F889010398416809682C
:1048C00088470398FEF738FF03E00398FEF734FFAC
:1048D000FFE7FFE703E00398FEF73EFFFFE703E093
:1048E0000398FEF739FFFFE79DF80B0004B080BD89
:1048F00080B584B0039000208DF80B00039800F57C
:10490000B67001900198408801280ED1FFE7039905
:10491000012081F88701039841688A6800F5B67123
:1049200090470398FEF708FFFFE79DF80B0004B0DF
:1049300080BD000080B584B003908DF80B10039803
:10494000006800909DF80B00000600280BD5FFE7DB
:10495000039A9DF80B0000F07F002C2110FB012032
:104960000C3001900AE0039A9DF80B0000F07F00E4
:104970002C2110FB0120BC300190FFE70098019929
:10498000FEF7E4F801990120487304B080BD0000EF
:1049900082B0019000910098007801990870009809
:1049A00040780199487000998878C97840EA0120D8
:1049B0000199488000990879497940EA01200199D4
:1049C000888000998879C97940EA01200199C880D6
:1049D00002B0704780B582B0019001984068C0690C
:1049E00028B1FFE701984168C9698847FFE702B02D
:1049F00080BD000080B582B00190019800680090F1
:104A00000098D0F80808C007C0B1FFE7019991F8F5
:104A1000840181F885010199042081F884010198BD
:104A2000FFF710F801984068006A30B1FFE701987D
:104A300041680A6A02219047FFE7FFE702B080BDA4
:104A400084B0039002910020ADF806000220ADF87A
:104A5000040003980090FFE700980078C8B1FFE7D2
:104A6000BDF806000130ADF806000098411C009129
:104A700000780299BDF80420531CADF80430885426
:104A80000299BDF80420501CADF8040000208854A1
:104A9000E2E7BDF80610022000EB4100ADF8060089
:104AA0009DF8060002990870029903204870BDF82D
:104AB000060004B07047000080B582B001900198F4
:104AC000006800900099D1F8040820F00100C1F8B6
:104AD000040801980068FEF701FA019991F8850130
:104AE00081F8840101984068006A30B1FFE70198BD
:104AF00041680A6A03219047FFE702B080BDEF00DA
:104B000041004200EF00483C4900511083209FF9CA
:104B1000EF01011E020F031004024140433065966D
:104B200066006797680169CD6A016BB06C046D2CF3
:104B30006E017400EF0041FF4201EF0037073817A4
:104B4000390641004200462D470F483C49004A1EA5
:104B50004C2051105E1060278042814482048B01FA
:104B60009006950A960C97059A149C3FA519CC19A6
:104B7000CD0BCE13CF64D021EF01020F031004023E
:104B800025012739287F29083EFF5E3D65966797F6
:104B900069CD6A016D2C6E01720173357400770165
:104BA0004B6579626F617264004B6579626F617207
:104BB0006420496E74657266616365004B65796255
:104BC0006F61726420436F6E66696700417274653D
:104BD00072790000000000000000000102030406DA
:104BE00007080900084C00080000002038010000F8
:104BF000AC010008404D0008380100207809000091
:104C0000C801000800000000220000005C00002035
:104C10001200000080000020050B020107020505BC
:104C20000706050107020502010D05050203020141
:104C30000702030201030D05092110010001223FB3
:104C400000000000040309041A0300000000000033
:104C50000000000000000000000000000000000054
:104C60000000000009022200010100E032090400F6
:104C7000000103010100092110010001223F00078A
:104C800005810340000A00001201000200000040FC
:104C90003C2E4060000201020301000005010906EC
:104CA000A101050719E029E71500250175019508FF
:104CB00081029501750881039505750105081901A3
:104CC0002905910295017503910395067508150054
:104CD00025FF0507190029658100C000751000082F
:104CE000850F0008C1100008E50F0008A50F000897
:104CF00049100008A910000829120008F90F00083F
:104D0000A802002045180008F1180008391800080A
:104D1000BD180008811800088D180008C118000887
:104D2000F5180008511800080918000804000000D0
:104D30003C0000201A0000004000002000127A0011
:04000005080001717D
:00000001FF
